:100000000C944A000C94A5030C942D040C946900E4
:100010000C94B5040C9469000C9469000C94E100F4
:100020000C9469000C9469000C946B000C946900AA
:100030000C9469000C9469000C9469000C9469009C
:100040000C9469000C948E030C9469000C94690064
:100050000C9469000C9469000C9469000C9469007C
:100060000C9469000C9469000C9469000C9469006C
:100070000C9469000C9469000C9469000C9469005C
:100080000C9469000C9469000C9469000C9469004C
:100090000C94690011241FBECFEFD0E1DEBFCDBFAD
:1000A00012E0A0E0B1E0ECE9F0E300E00BBF02C039
:1000B00007900D92AC32B107D9F712E0ACE2B2E092
:1000C00001C01D92A038B107E1F70E943D050C94D4
:1000D0004C180C9400001F920F920FB60F920BB6A3
:1000E0000F9211241F932F933F934F935F936F931E
:1000F0007F938F939F93AF93BF93EF93FF9386E08C
:100100008093B20080912E0220912F023091300214
:100110004091310260913202E0913302A0913402A9
:1001200010913502B82FBF5F91E0B81708F090E04A
:10013000F92FF20F81E0F21708F080E0782F730FAB
:1001400081E0731708F080E0582F540F81E05417B6
:1001500008F080E0382F360F81E0361708F080E095
:10016000282F2E0F81E02E1708F080E0982F9A0F8D
:1001700081E09A1708F080E0810FB0932E02F0938F
:100180002F02709330025093310230933202209349
:1001900033029093340280933502FF91EF91BF9127
:1001A000AF919F918F917F916F915F914F913F910F
:1001B0002F911F910F900BBE0F900FBE0F901F90AD
:1001C00018951F920F920FB60F920BB60F92112433
:1001D0007F928F929F92AF92BF92CF92DF92EF92D7
:1001E000FF920F931F932F933F934F935F936F93C0
:1001F0007F938F939F93AF93BF93EF93FF938091E0
:10020000510290915202892B09F0E3C070912E02A5
:1002100060912F02509130024091310230913202B0
:10022000209133029091340280913502882379F431
:10023000992369F4222359F4332349F4442339F4EC
:10024000552329F4662319F47B3008F4B4C11DBA90
:100250008091B200809361021092620286E08093E6
:10026000B20080912E0230912F0250913002709195
:100270003102F0913202A091330290903402409109
:100280003502A09036022091370260913802E09149
:100290003902B0913A0210913B0280903C0270907A
:1002A0003D02A80E91E0A81608F090E0832F820F7F
:1002B00021E0831708F020E0B92EB80E91E0B816BF
:1002C00008F090E0292B852F860F31E0851708F084
:1002D00030E0C22EC80E91E0C81608F090E0392B2D
:1002E000872F8E0F21E0871708F020E0D32ED80E3D
:1002F00091E0D81608F090E0292B8F2F8B0F31E07A
:100300008F1708F030E0E22EE80E91E0E81608F0D2
:1003100090E0392B8A2F810F01E08A1708F000E066
:10032000F32EF80E91E0F81608F090E0092B892DD5
:10033000880D11E0891508F010E0080F91E008170A
:1003400008F090E0192B470D140FA0927402B092A0
:100350007502C0927602D0927702E0927802F09213
:10036000790200937A0210937B0210922E0210926F
:100370002F0210923002109231021092320210922B
:10038000330210923402109235022FE73FE741E02A
:1003900050E060E070E080E090E00E943F0A20932F
:1003A0005302309354024093550250935602609387
:1003B0005702709358028093590290935A0280E238
:1003C00080936A0081E090E0909352028093510202
:1003D000E0C070912E0260912F0250913002409146
:1003E0003102309132022091330290913402809197
:1003F0003502882379F4992369F4222359F43323AD
:1004000049F4442339F4552329F4662319F47B3045
:1004100008F4D1C01DBA8091B2008093610210929D
:10042000620286E08093B20080912E0230912F020A
:100430005091300270913102F0913202A09133025A
:100440009090340240913502A090360220913702FC
:1004500060913802E0913902B0913A0210913B026A
:1004600080903C0270903D02A80E91E0A81608F022
:1004700090E0832F820F21E0831708F020E0B92E4F
:10048000B80E91E0B81608F090E0292B852F860F62
:1004900031E0851708F030E0C22EC80E91E0C81692
:1004A00008F090E0392B872F8E0F21E0871708F096
:1004B00020E0D32ED80E91E0D81608F090E0292B3A
:1004C0008F2F8B0F31E08F1708F030E0E22EE80E0F
:1004D00091E0E81608F090E0392B8A2F810F01E0B7
:1004E0008A1708F000E0F32EF80E91E0F81608F0F5
:1004F00090E0092B892D880D11E0891508F010E096
:10050000080F91E0081708F090E0192B470D140F21
:10051000A0927402B0927502C0927602D0927702D5
:10052000E0927802F092790200937A0210937B02B3
:1005300010922E0210922F0210923002109231026D
:10054000109232021092330210923402109235024D
:100550002CEC32E341E050E060E070E080E090E0BD
:100560000E943F0A20935302309354024093550255
:100570005093560260935702709358028093590229
:1005800090935A0280E380936A0010925202109274
:1005900051021092360210923702109238021092D5
:1005A000390210923A0210923B0210923C021092D1
:1005B0003D02EE9A95C050912E0220912F02E091BB
:1005C000300210913102E0903202D0903302C0909C
:1005D0003402B0903502809136023091370240915A
:1005E000380270913902F0913A02B0913B02F090DA
:1005F0003C0260913D02580F91E0581708F090E0DE
:10060000832F820F21E0831708F020E0092F080FC5
:1006100091E0081708F090E0292B842F8E0F31E02D
:10062000841708F030E0A22FA80F91E0A81708F077
:1006300090E0392B872F810F21E0871708F020E009
:10064000E32FE80F91E0E81708F090E0292B8F2FB7
:100650008E0D31E08F1708F030E0722F780F91E0A7
:10066000781708F090E0392B8B2F8D0D21E08B1738
:1006700008F020E0432F480F91E0481708F090E081
:10068000292B8F2D8C0D91E08F1508F090E0322FE3
:10069000380F21E0381708F020E0922B6B0D960FF1
:1006A0005093360200933702A0933802E093390248
:1006B00070933A0240933B0230933C0290933D0288
:1006C00010922E0210922F021092300210923102DC
:1006D00010923202109233021092340210923502BC
:1006E000FF91EF91BF91AF919F918F917F916F910A
:1006F0005F914F913F912F911F910F91FF90EF903C
:10070000DF90CF90BF90AF909F908F907F900F9091
:100710000BBE0F900FBE0F901F9018951F920F9257
:100720000FB60F9211248F939F9380914D02909159
:100730004E02019690934E0280934D029F918F91AD
:100740000F900FBE0F901F9018951F920F920FB62B
:100750000F920BB60F921124EF92FF920F931F93FB
:100760002F933F934F935F936F937F938F939F93B9
:10077000AF93BF93EF93FF9380912C0290912D0242
:10078000892BB9F410924E0210924D0280916E00A6
:10079000816080936E0084B5826084BD16BC82E067
:1007A0008093690081E090E090932D0280932C0269
:1007B0000EC086B580935F021092600210926E00A8
:1007C00010922D0210922C0283E0809369006091B8
:1007D0004D0270914E027695762F66277795679534
:1007E00080E090E00E943A147B018C0160915F02EE
:1007F0007091600280E090E00E943A1420E030E0C6
:1008000040E05FE30E945E129B01AC01C801B701AA
:100810000E9431120E94E613DC01CB016BE370E011
:100820000E94A81670935C0260935B02FF91EF91A7
:10083000BF91AF919F918F917F916F915F914F91F8
:100840003F912F911F910F91FF90EF900F900BBE52
:100850000F900FBE0F901F9018951F920F920FB61A
:100860000F920BB60F921124EF92FF920F931F93EA
:100870002F933F934F935F936F937F938F939F93A8
:10088000AF93BF93EF93FF9380912C0290912D0231
:10089000892BB9F410924E0210924D0280916E0095
:1008A000816080936E0084B5826084BD16BC88E050
:1008B0008093690081E090E090932D0280932C0258
:1008C0000EC086B580935F021092600210926E0097
:1008D00010922D0210922C028CE08093690060919E
:1008E0004D0270914E027695762F66277795679523
:1008F00080E090E00E943A147B018C0160915F02DD
:100900007091600280E090E00E943A1420E030E0B4
:1009100040E05FE30E945E129B01AC01C801B70199
:100920000E9431120E94E613DC01CB016BE370E000
:100930000E94A81670935E0260935D02FF91EF9192
:10094000BF91AF919F918F917F916F915F914F91E7
:100950003F912F911F910F91FF90EF900F900BBE41
:100960000F900FBE0F901F9018951F920F920FB609
:100970000F920BB60F921124EF92FF920F931F93D9
:100980002F933F934F935F936F937F938F939F9397
:10099000AF93BF93EF93FF9380912C0290912D0220
:1009A000892BB9F410924E0210924D0280916E0084
:1009B000816080936E0084B5826084BD16BC80E83F
:1009C0008093690081E090E090932D0280932C0247
:1009D0000EC086B580935F021092600210926E0086
:1009E00010922D0210922C0280EC8093690060918D
:1009F0004D0270914E027695762F66277795679512
:100A000080E090E00E943A147B018C0160915F02CB
:100A10007091600280E090E00E943A1420E030E0A3
:100A200040E05FE30E945E129B01AC01C801B70188
:100A30000E9431120E94E613DC01CB016BE370E0EF
:100A40000E94A8167093500260934F02FF91EF919D
:100A5000BF91AF919F918F917F916F915F914F91D6
:100A60003F912F911F910F91FF90EF900F900BBE30
:100A70000F900FBE0F901F9018958CE291E00E948E
:100A8000750578940E9499061092520210925102B4
:100A90000E94C4050E94A6050E948A0560915D021D
:100AA00070915E0240914F025091500280915B0222
:100AB00090915C020E94E20590937302809372020F
:100AC0000E9401060E948B06E3CF089520E030E0EB
:100AD00008C00F920F900F920F900F920F902F5F00
:100AE0003F4F28173907A8F308950F931F93CF930B
:100AF000DF938C01C0E0D0E005C088EE93E00E9457
:100B000066052196C017D107C0F3DF91CF911F91E1
:100B10000F9108951F9380E880936900EB9A1FEF6F
:100B20001AB91BB882E090E00E9466051BB985E007
:100B300090E00E9466051BB81AB81BB884E190E0EB
:100B40000E9475058DB31DBA1F9108951F938CE007
:100B500080936900E99A1FEF1AB91BB882E090E010
:100B60000E9466051AB91BB985E090E00E946605EF
:100B70001AB91BB81AB81BB884E190E00E94750539
:100B80008DB31DBA1F9108951F9383E08093690070
:100B9000E89A1FEF1AB91BB882E090E00E94660540
:100BA0001AB91BB985E090E00E9466051AB91BB816
:100BB0001AB81BB884E190E00E9475058DB31DBA88
:100BC0001F9108956233710544F4683271057CF019
:100BD000C29784F02CE830E012C0C29724F442336C
:100BE000510544F40AC0423351053CF408952AEFFC
:100BF00030E005C020E030E002C029E630E0C90165
:100C000008955F926F927F928F929F92AF92BF9260
:100C1000CF92DF92EF92FF920F931F93CF93DF93C8
:100C20007C01239A84E090E00E9447175C0182E0F7
:100C300090E00E9447176C010027F7FC0095102FE9
:100C4000C801B7010E9488132FE832EC41E351E458
:100C50000E945E1220E030E04AEF53E40E9431121D
:100C60007B018C010E94130A4B01C0E0D0E090E1AF
:100C7000592E80E2682E8EE4782EF501E082F18212
:100C800002831383F6019182808255B8C4010E94C9
:100C9000660515B8F601808191819301281B390BF7
:100CA000C9010E9466052196C031D10531F7DF9157
:100CB000CF911F910F91FF90EF90DF90CF90BF9059
:100CC000AF909F908F907F906F905F9008958CE091
:100CD0008EB924EC39E0C9010197F1F788E08EB9AB
:100CE000C9010197F1F708951092990010929800A8
:100CF00088EA91E60197F1F7089581E082B9E0E989
:100D0000F0E080818F7B80838FEF9FE0909399004C
:100D100080939800089582E082B9E0E9F0E0808154
:100D20008F7B80838FEF9FE0909399008093980052
:100D300008956B9A739A81B1836081B9E0E9F0E01C
:100D400083E0808380818068808382E0809391004B
:100D5000109295001092940008951092C80088E9AE
:100D60008093C90086E08093CA001092CD0087E688
:100D70008093CC0008958091C80087FFFCCF8091BC
:100D8000CE000895982F8091C80085FFFCCF9093E6
:100D9000CE000895FC0107C08091C80085FFFCCFFC
:100DA00031969093CE0090819923B1F708951092D7
:100DB000C00088E98093C10086E08093C200109251
:100DC000C50087E68093C40008958091C00087FF26
:100DD000FCCF8091C6000895982F8091C00085FFB8
:100DE000FCCF9093C6000895FC0107C08091C0001D
:100DF00085FFFCCF31969093C60090819923B1F77F
:100E00000895982F8091D80081608093D800933006
:100E1000A1F0943028F4913051F09230E9F40AC0F6
:100E2000953079F0953058F09630B1F40CC01092AE
:100E3000E2000CC09093E20009C086E005C088E0A3
:100E400003C08EE001C082E18093E2008CE08093D9
:100E5000E30087E38093E40090E0892F8295807F10
:100E60008093ED001092EF001092EE001092F300CC
:100E70001092F2001092F1001092F0001092F70020
:100E80001092F6001092F5001092F40080E010929B
:100E9000FA008F5F8830D9F79F5F9F30F1F610928C
:100EA000DB001092DF001092DE001092E100109241
:100EB000E00080E28093D8008091D8008260809327
:100EC000D8008091D90082FFFCCF0895CF93DF93A3
:100ED000EB01288139814A815B818295807F8093F3
:100EE000ED001092EE001092EF008D818823A9F49E
:100EF000DA01C901E3E0B695A79597958795EA953C
:100F0000D1F78093F300822F8295880F807E8093A3
:100F1000F2008091EF008F7E2AC0DA01C90175E1ED
:100F2000B695A795979587957A95D1F78093F30015
:100F3000DA01C9016DE0B695A795979587956A95F1
:100F4000D1F78093F200DA01C90135E0B695A79593
:100F5000979587953A95D1F78093F100822F880F66
:100F6000880F880F8093F0008091EF00806180935C
:100F7000EF008091EF002E81822B8093EF00909103
:100F8000F0008C818470892B8093F0008091F000B8
:100F90008D7F8093F0008091F0008E7F8093F00031
:100FA00090E007C0FE01E90FF11D87818093FA00F0
:100FB0009F5F9217B8F38091EF0080648093EF00F9
:100FC0008091EE0086FFFCCF8091EE008F7B8093B6
:100FD000EE0081E0DF91CF910895AF92BF92CF9262
:100FE000DF92EF92FF920F931F93CF93DF93EB016A
:100FF0008295807F8093ED008091EE0085FFFCCF8D
:101000008091EF0084FD1BC01D828091F30090E071
:10101000A0E0B0E0AA24B82EC92EDA2E8091F2000A
:1010200090E0A0E0B0E0A82AB92ACA2ADB2A85E02D
:10103000D694C794B794A7948A95D1F734C081E029
:101040008D838091F30090E0A0E0B0E0D82ECC2416
:10105000BB24AA248091F200E090F1002091F000DE
:1010600090E0A0E0B0E0DC0199278827A82AB92AFF
:10107000CA2ADB2A30E040E050E0A22AB32AC42A80
:10108000D52AFF2400E010E0102F0F2DFE2CEE24B7
:10109000AE28BF28C02AD12AF3E0D694C794B794CB
:1010A000A794FA95D1F7A882B982CA82DB8280918F
:1010B000F00084708C838091EF008F708E8320E02D
:1010C00006C08091FA00EC0FFD1F87832F5FE22F8F
:1010D000F0E08091EF0090E08F709070E817F907D2
:1010E00084F31092EE008091EF0080688093EF000F
:1010F0008091EE008F7D8093EE0081E0DF91CF91B3
:101100001F910F91FF90EF90DF90CF90BF90AF9025
:101110000895AF92CF92DF92EF92FF920F933A2D04
:101120008295807F8093ED001092EE00222341F59E
:10113000DB01CA0153E0B695A795979587955A9517
:10114000D1F78093F300842F8295880F807E80935F
:10115000F200D701C60123E0B695A795979587952C
:101160002A95D1F78093F7008C2D8295880F807E89
:101170008093F6001092F4008091EF008F7E51C0B2
:10118000DB01CA01F5E1B695A79597958795FA9584
:10119000D1F78093F300DB01CA01EDE0B695A79586
:1011A00097958795EA95D1F78093F200DB01CA0104
:1011B00075E0B695A795979587957A95D1F7809321
:1011C000F100842F880F880F880F8093F000D701DB
:1011D000C60165E1B695A795979587956A95D1F76C
:1011E0008093F700D701C6015DE0B695A795979566
:1011F00087955A95D1F78093F600D701C60145E04F
:10120000B695A795979587954A95D1F78093F50060
:101210008C2D880F880F880F8093F4008091EF0049
:1012200080618093EF008091EF000F70802B80939E
:10123000EF008091F4003770832B8093F40080914D
:10124000EF0080688093EF000F91FF90EF90DF90A8
:10125000CF90AF900895AF92CF92DF92EF92FF922E
:101260000F93382FEA2D8295807F8093ED001092A6
:10127000EE0021FF04C08091EF00806203C08091E6
:10128000EF008F7D8093EF0020FD28C0DB01CA01B5
:1012900053E0B695A795979587955A95D1F7809382
:1012A000F300842F8295880F807E8093F200D7010F
:1012B000C60143E0B695A795979587954A95D1F7CE
:1012C0008093F7008C2D8295880F807E8093F600A6
:1012D0001092F4008091EF008F7E51C0DB01CA01B3
:1012E00025E1B695A795979587952A95D1F780938F
:1012F000F300DB01CA01FDE0B695A79597958795A8
:10130000FA95D1F78093F200DB01CA0125E0B6958A
:10131000A795979587952A95D1F78093F100842F0B
:10132000880F880F880F8093F000D701C601F5E180
:10133000B695A79597958795FA95D1F78093F7007D
:10134000D701C6017DE0B695A795979587957A95C3
:10135000D1F78093F600D701C60165E0B695A79551
:10136000979587956A95D1F78093F5008C2D880F16
:10137000880F880F8093F4008091EF008061809344
:10138000EF008091EF000F70802B8093EF00809131
:10139000F400E7708E2B8093F4008091DB00806A6C
:1013A0008093DB00383050F481E090E002C0880F79
:1013B000991F3A95E2F78093DE000DC0232F30E0AD
:1013C0002850304081E090E002C0880F991F2A9594
:1013D000E2F78093DF008091EF0080688093EF0058
:1013E00078940F91FF90EF90DF90CF90AF90089599
:1013F000E0EBF0E0808183608083E0E7F0E08081D3
:10140000816080831092B20080E380936A00EE9A3C
:101410008DB180748DB98EB180748EB9789486E068
:101420008093B2000895EF92FF920F931F937B0178
:101430008C0120E030E040E05FE40E9458138823F4
:101440008CF0C801B70120E030E040E05FE40E948A
:1014500000120E94E6139B01AC0120503040404036
:10146000504806C0C801B7010E94E6139B01AC01B9
:10147000B901CA011F910F91FF90EF900895AEE559
:10148000B0E0E5E4FAE00C941017A8E04E010894EF
:10149000811C911CF4016A2E11926A94E9F7298348
:1014A0003A834B835C836D837E838F839887CE01E1
:1014B0000996FC011192AA95E9F7A986BA86CB860E
:1014C000DC86ED86FE860F87188B29843A844B8450
:1014D0005C84ED84FE840F85188969807A808B8016
:1014E0009C806DA67EA68FA698AA6D807E808F8038
:1014F0009884E114F1040105110509F0B3C36214E5
:1015000073048404950408F03DC100E0201600E057
:10151000300601E0400600E0500688F41FEF211677
:1015200031044104510439F030F048E0E42EF12C4C
:10153000012D112D18C0EE24FF24870114C020E0D6
:10154000221620E0320620E0420621E0520630F06A
:1015500038E1E32EF12C012D112D05C020E1E22E02
:10156000F12C012D112DD201C1010E2C04C0B69514
:10157000A795979587950A94D2F78A5D9E4FDC01CF
:101580002C9180E290E0A0E0B0E08E199F09A00BC2
:10159000B10B7C018D01E21AF10801091109E11476
:1015A000F10401051105A1F10E2C04C0220C331C1D
:1015B000441C551C0A94D2F7A40193010E2C04C0BC
:1015C000220F331F441F551F0A94D2F780E290E088
:1015D0008E199F096DA47EA48FA498A804C0969428
:1015E0008794779467948A95D2F7622A732A842A1B
:1015F000952AADA4BEA4CFA4D8A804C0AA0CBB1C35
:10160000CC1CDD1CEA94D2F7ADA6BEA6CFA6D8AA04
:101610006201EE24FF24CDAADEAAEFAAF8AE920161
:1016200081012070307009AF1AAF2BAF3CAFC401FD
:10163000B301A70196010E94EE167B018C01C40143
:10164000B3012DA93EA94FA958AD0E94EE16C901BC
:10165000DA013C014D01C401B30129AD3AAD4BADF6
:101660005CAD0E94BB169B01AC018701FF24EE24F8
:10167000ADA4BEA4CFA4D8A8C601AA27BB275701F2
:101680006801A82AB92ACA2ADB2AA216B306C40608
:10169000D506E0F408946108710881089108A20C4D
:1016A000B31CC41CD51CA214B304C404D50470F02C
:1016B000A216B306C406D50648F40894610871085A
:1016C00081089108A20CB31CC41CD51CA21AB30A31
:1016D000C40AD50AC601B5012DA93EA94FA958AD26
:1016E0000E94EE167B018C01C601B5012DA93EA911
:1016F0004FA958AD0E94EE16C901DA015C016D01D7
:10170000C601B50129AD3AAD4BAD5CAD0E94BB162B
:101710009B01AC018701FF24EE248DA59EA5AFA5FA
:10172000B8A9A070B070E82AF92A0A2B1B2BE21680
:10173000F30604071507C0F40894A108B108C1080E
:10174000D108E20CF31C041D151DE214F30404057A
:10175000150550F0E216F3060407150728F408945F
:10176000A108B108C108D108D301992788278601AB
:101770007501E82AF92A0A2B1B2BE9AAFAAA0BAB56
:101780001CABCFC4211431044104510471F461E055
:1017900070E080E090E020E030E040E050E00E9427
:1017A000EE16C901DA011C012D0100E0201600E04F
:1017B000300601E0400600E0500688F41FEF2116D5
:1017C00031044104510431F028F048E050E060E079
:1017D00070E017C040E050E060E070E012C020E030
:1017E000221620E0320620E0420621E0520628F0D0
:1017F00048E150E060E070E004C040E150E060E0AB
:1018000070E0D201C101042E04C0B695A79597954A
:1018100087950A94D2F78A5D9E4FDC012C91E0E215
:10182000EE2EF12C012D112DD801C701841B950B33
:10183000A60BB70B821B9109A109B1090097A1055D
:10184000B10561F464015301A218B308C408D508B6
:1018500031E0632E712C812C912C1EC16F968FAFBD
:101860006F97082E04C0220C331C441C551C0A948C
:10187000D2F7EE2DE81B640153010E2E04C0D6945E
:10188000C794B794A7940A94D2F7A40193016F96D2
:101890000FAC6F9704C0220F331F441F551F0A94CB
:1018A000D2F76DA47EA48FA498A80E2E04C096949F
:1018B0008794779467940A94D2F784017301E22A9B
:1018C000F32A042B152BE9A6FAA60BA71CA73201B5
:1018D00088249924920181012070307021960CAFE8
:1018E0001DAF2EAF3FAF2197C601B501A4019301F3
:1018F0000E94EE167B018C01C601B501A401930183
:101900000E94EE16C901DA0125968CAF9DAFAEAFED
:10191000BFAF2597BC01CD0121962CAD3DAD4EAD9D
:101920005FAD21970E94BB169B01AC018701FF248C
:10193000EE24A9A4BAA4CBA4DCA4C601AA27BB2781
:101940005C016D01AE28BF28C02AD12AA216B306B9
:10195000C406D50660F525966CAD7DAD8EAD9FAD08
:101960002597615070408040904025966CAF7DAFC8
:101970008EAF9FAF2597A20CB31CC41CD51CA2141C
:10198000B304C404D50498F0A216B306C406D50661
:1019900070F4615070408040904025966CAF7DAFF0
:1019A0008EAF9FAF2597A20CB31CC41CD51CA21AE6
:1019B000B30AC40AD50AC601B501A40193010E9465
:1019C000EE167B018C01C601B501A40193010E94B2
:1019D000EE16C901DA013C014D01C401B3012196A3
:1019E0002CAD3DAD4EAD5FAD21970E94BB169B0166
:1019F000AC018701FF24EE2489A59AA5ABA5BCA55F
:101A0000A070B07057016801A82AB92ACA2ADB2A37
:101A1000A216B306C406D506E0F40894610871085E
:101A200081089108A20CB31CC41CD51CA214B304D9
:101A3000C404D50470F0A216B306C406D50648F453
:101A400008946108710881089108A20CB31CC41C99
:101A5000D51C8DA59EA5AFA5B8A96F960FAC6F97A5
:101A600004C0880F991FAA1FBB1F0A94D2F78DA725
:101A70009EA7AFA7B8ABA21AB30AC40AD50A259687
:101A8000ECACFDAC0EAD1FAD2597D701992788278B
:101A9000682A792A8A2A9B2A8201222733272996B3
:101AA0000CAF1DAF2EAF3FAF2997A201910140703F
:101AB00050702D962CAF3DAF4EAF5FAF2D97C60146
:101AC000B50129962CAD3DAD4EAD5FAD29970E9475
:101AD000EE167B018C01C601B50129962CAD3DADFA
:101AE0004EAD5FAD29970E94EE16C901DA016196ED
:101AF0008CAF9DAFAEAFBFAF6197BC01CD012D964E
:101B00002CAD3DAD4EAD5FAD2D970E94BB169B0138
:101B1000AC018701FF24EE24ADA4BEA4CFA4D8A8B5
:101B2000C601AA27BB2757016801A82AB92ACA2AD1
:101B3000DB2AA216B306C406D50660F561966CAD25
:101B40007DAD8EAD9FAD61976150704080409040FB
:101B500061966CAF7DAF8EAF9FAF6197A20CB31C47
:101B6000C41CD51CA214B304C404D50498F0A21656
:101B7000B306C406D50670F46150704080409040B2
:101B800061966CAF7DAF8EAF9FAF6197A20CB31C17
:101B9000C41CD51CA21AB30AC40AD50AC601B501D1
:101BA00029962CAD3DAD4EAD5FAD29970E94EE1646
:101BB0007B018C01C601B50129962CAD3DAD4EAD22
:101BC0005FAD29970E94EE16C901DA015C016D0133
:101BD000C601B5012D962CAD3DAD4EAD5FAD2D9737
:101BE0000E94BB169B01AC018701FF24EE248DA54A
:101BF0009EA5AFA5B8A9A070B070E82AF92A0A2B53
:101C00001B2BE216F30604071507C0F40894A1087D
:101C1000B108C108D108E20CF31C041D151DE21423
:101C2000F3040405150550F0E216F3060407150742
:101C300028F40894A108B108C108D1086196ECAC59
:101C4000FDAC0EAD1FAD6197D7019927882796018E
:101C50008501082B192B2A2B3B2B09AB1AAB2BAB7D
:101C60003CAB62C26E147F048006910608F451C238
:101C700020E0E21620E0F20621E0020720E0120751
:101C800088F43FEFE316F1040105110531F028F067
:101C900048E050E060E070E017C040E050E060E0F5
:101CA00070E012C040E0E41640E0F40640E00407B3
:101CB00041E0140728F048E150E060E070E004C023
:101CC00040E150E060E070E0D801C701042E04C09C
:101CD000B695A795979587950A94D2F78A5D9E4FFA
:101CE000DC012C9130E2A32EB12CC12CD12CD601D9
:101CF000C501841B950BA60BB70B821B9109A1098B
:101D0000B1090097A105B10589F4E614F7040805A7
:101D1000190508F4F2C16DA47EA48FA498A86214DA
:101D200073048404950408F0E8C1F3C16E968FAF84
:101D30006E97082E04C0EE0CFF1C001F111F0A94A2
:101D4000D2F76A2D681BD201C101062E04C0B695D8
:101D5000A795979587950A94D2F75C016D01AE28F7
:101D6000BF28C02AD12AADA2BEA2CFA2D8A6720196
:101D700061016E960FAC6E9704C0CC0CDD1CEE1C9E
:101D8000FF1C0A94D2F7C9A2DAA2EBA2FCA264015A
:101D90005301062E04C0D694C794B794A7940A940E
:101DA000D2F7D401C3016E960FAC6E9704C0880FB2
:101DB000991FAA1FBB1F0A94D2F7EDA4FEA40FA57A
:101DC00018A904C016950795F794E7946A95D2F779
:101DD00037014801682A792A8A2A9B2A6D8E7E8ECD
:101DE0008F8E98A2EDA0FEA00FA118A5380188241F
:101DF0009924980187012070307065960CAF1DAF53
:101E00002EAF3FAF6597C601B501A40193010E94B3
:101E1000EE167B018C01C601B501A40193010E945D
:101E2000EE16C901DA011C012D01C201B10165964E
:101E30002CAD3DAD4EAD5FAD65970E94BB169B01CD
:101E4000AC018701FF24EE24AD8CBE8CCF8CD8A0D2
:101E5000C601AA27BB2757016801A82AB92ACA2A9E
:101E6000DB2AA216B306C406D50600F5089421089D
:101E7000310841085108EDA0FEA00FA118A5AE0C35
:101E8000BF1CC01ED11EAE14BF04C006D10670F028
:101E9000A216B306C406D50648F4089421083108F2
:101EA00041085108AE0CBF1CC01ED11EA21AB30AB5
:101EB000C40AD50AC601B501A40193010E94EE1619
:101EC0007B018C01C601B501A40193010E94EE16AD
:101ED000C901DA013C014D01C401B30165962CAD85
:101EE0003DAD4EAD5FAD65970E94BB169B01AC0149
:101EF0008701FF24EE248D8D9E8DAF8DB8A1A0703B
:101F0000B07057016801A82AB92ACA2ADB2AA2168A
:101F1000B306C406D50600F5089461087108810867
:101F200091086DA17EA18FA198A5A60EB71EC81E0F
:101F3000D91EA616B706C806D90670F0A216B306B3
:101F4000C406D50648F40894610871088108910810
:101F5000A60EB71EC81ED91ED601C501821B930B43
:101F6000A40BB50B898F9A8FAB8FBC8FD1019927AA
:101F7000882764015301A82AB92ACA2ADB2AA9AAF8
:101F8000BAAACBAADCAA860175012FEF3FEF40E089
:101F900050E0E222F32204231523A60166277727C7
:101FA0006D964CAF5DAF6EAF7FAF6D97A9A0BAA035
:101FB000CBA0DCA06FEF7FEF80E090E0A622B722FD
:101FC000C822D92289A19AA1ABA1BCA11D01442498
:101FD0005524C801B701A60195010E94BB16699658
:101FE0006CAF7DAF8EAF9FAF6997C801B701A201FB
:101FF00091010E94BB163B014C016D966CAD7DAD0D
:102000008EAD9FAD6D97A60195010E94BB167B0119
:102010008C016D966CAD7DAD8EAD9FAD6D97A201BF
:1020200091010E94BB165B016C01A8019701260D6E
:10203000371D481D591D69966CAC7DAC8EAC9FACAC
:102040006997C401AA27BB27280F391F4A1F5B1FA6
:102050002E153F054007510748F4E12CF12C61E0B3
:10206000062F112DAE0CBF1CC01ED11ECA01AA27FF
:10207000BB27BC01CD016A0D7B1D8C1D9D1D698C8C
:102080007A8C8B8C9C8C661677068806990640F1B4
:10209000661577058805990509F043C0D901992788
:1020A000882769962CAD3DAD4EAD5FAD6997407008
:1020B0005070820F931FA41FB51F2DA53EA54FA5DD
:1020C00058A96E960FAC6E9704C0220F331F441FA1
:1020D000551F0A94D2F7281739074A075B0708F5F6
:1020E00009A91AA92BA93CA9015010402040304051
:1020F00009AB1AAB2BAB3CAB14C06624772443016D
:1021000021E030E040E050E029AB3AAB4BAB5CABB8
:102110000BC066247724430119AA1AAA1BAA1CAA79
:1021200003C0662477244301FE01719688E0DF0135
:102130001D928A95E9F7A9A8BAA8CBA8DCA8A98A14
:10214000BA8ACB8ADC8A6D8A7E8A8F8A988E29A980
:102150003A894B895C89662D7E898F89988DC25A10
:10216000DF4FE2E10C942C17A0E0B0E0EAEBF0E1E5
:102170000C941017DC012B01FA019C91923008F4A9
:1021800039C1EB018881823008F433C1943069F49D
:10219000843009F02FC111969C911197898198176D
:1021A00009F428C1AEE1B1E025C1843009F421C1B0
:1021B0008230A9F4923009F01DC19A01AD0188E086
:1021C000EA010990AE01E90109929E018150C1F72F
:1021D000E201898111969C918923818308C1923003
:1021E00009F407C112962D903C901397EB018A8158
:1021F0009B811496AD90BD90CD90DC901797EC80AC
:10220000FD800E811F819101281B390BB90137FF19
:1022100004C066277727621B730B603271050CF0D0
:1022200061C0121613066CF537014801062E04C072
:1022300096948794779467940A94D2F721E030E0DB
:1022400040E050E004C0220F331F441F551F6A9521
:10225000D2F721503040404050402E213F214023B2
:102260005123211531054105510521F021E030E0D0
:1022700040E050E079018A01E628F7280829192969
:102280003CC0232BD1F1260E371E35014601062E08
:1022900004C096948794779467940A94D2F721E0C7
:1022A00030E040E050E004C0220F331F441F551FB0
:1022B0006A95D2F721503040404050402A213B21BE
:1022C0004C215D21211531054105510521F021E009
:1022D00030E040E050E059016A01A628B728C8283C
:1022E000D9280BC0821593052CF01C01AA24BB240D
:1022F000650103C0EE24FF24870111969C91D20151
:1023000011968C91981709F445C0992339F0A801CA
:1023100097012A193B094C095D0906C0A6019501E0
:102320002E193F09400B510B57FD08C01182338213
:10233000228224833583468357831DC081E08183B5
:102340003382228288279927DC01821B930BA40BFE
:10235000B50B84839583A683B7830DC0220F331FEB
:10236000441F551F2483358346835783828193817D
:102370000197938382832481358146815781DA01D5
:10238000C9010197A109B1098F5F9F4FAF4FBF43AB
:1023900028F30BC0918333822282EA0CFB1C0C1DB4
:1023A0001D1DE482F5820683178383E080832481E8
:1023B00035814681578157FF1AC0C901AA2797FD69
:1023C000A095BA2F81709070A070B0705695479507
:1023D00037952795822B932BA42BB52B848395833C
:1023E000A683B78382819381019693838283DF01E1
:1023F00001C0D201CD01CDB7DEB7E2E10C942C17BC
:10240000A0E2B0E0E6E0F2E10C941C1769837A8365
:102410008B839C832D833E834F835887E9E0EE2E88
:10242000F12CEC0EFD1ECE010196B7010E94D715CE
:102430008E010F5E1F4FCE010596B8010E94D71581
:102440008A8991E089278A8BC701B801AE01475E6E
:102450005F4F0E94B4100E940215A096E6E00C9413
:102460003817A0E2B0E0E7E3F2E10C941C176983AF
:102470007A838B839C832D833E834F835887F9E037
:10248000EF2EF12CEC0EFD1ECE010196B7010E943D
:10249000D7158E010F5E1F4FCE010596B8010E9421
:1024A000D715C701B801AE01475E5F4F0E94B41057
:1024B0000E940215A096E6E00C943817A0E2B0E066
:1024C000E4E6F2E10C94101769837A838B839C8392
:1024D0002D833E834F835887CE010196BE01675FEF
:1024E0007F4F0E94D715CE010596BE016F5E7F4FCC
:1024F0000E94D7159985923088F089898230C8F07A
:10250000943019F4823051F404C0843029F49230AC
:1025100081F48EE191E0C6C0923049F420E09A85C2
:102520008A89981321E02A87CE010996BBC08230A0
:1025300049F420E09A858A89981321E02A8BCE01FC
:102540004196B0C02D843E844F8458886D887E8823
:102550008F88988CEE24FF248701AA24BB24650170
:1025600040E050E060E070E0E0E0F0E0C101817048
:102570009070892BE9F0E60CF71C081D191D9A01D3
:10258000AB012A0D3B1D4C1D5D1D80E090E0A0E0DD
:10259000B0E0E614F7040805190520F481E090E0A6
:1025A000A0E0B0E0BA01A901480F591F6A1F7B1FC4
:1025B000AA0CBB1CCC1CDD1C97FE08C081E090E07F
:1025C000A0E0B0E0A82AB92ACA2ADB2A3196E03274
:1025D000F10549F0660C771C881C991C56944794A9
:1025E00037942794C3CFFA85EA892B893C898B8558
:1025F0009C85280F391F2E5F3F4F17C0CA0181707D
:102600009070892B61F016950795F794E79480E018
:1026100090E0A0E0B0E8E82AF92A0A2B1B2B769577
:102620006795579547952F5F3F4F77FDE7CF0CC0D4
:10263000440F551F661F771F17FD4160EE0CFF1CEE
:10264000001F111F21503040403090E0590790E0AA
:10265000690790E4790760F32B8F3C8FDB01CA0197
:102660008F779070A070B07080349105A105B1058E
:1026700061F447FD0AC0E114F1040105110529F0D8
:10268000405C5F4F6F4F7F4F40781A8EFE1711F0FE
:1026900081E08A8F4D8F5E8F6F8F78A383E0898F63
:1026A000CE0149960E940215A096E2E10C942C17E7
:1026B000A8E1B0E0EEE5F3E10C941C1769837A839E
:1026C0008B839C832D833E834F83588789E0E82E3C
:1026D000F12CEC0EFD1ECE010196B7010E94D7151C
:1026E0008E010F5E1F4FCE010596B8010E94D715CF
:1026F0008985823040F08989823028F0C701B8018D
:102700000E944F1601C08FEF6896E6E00C943817D0
:10271000A8E0B0E0EEE8F3E10C9419179B01AC01DE
:1027200083E08983DA01C9018827B7FD839599275A
:10273000AA27BB27B82E211531054105510519F4EB
:1027400082E089833AC08823A9F0203080E03807EE
:1027500080E0480780E8580729F460E070E080E0F6
:102760009FEC30C0EE24FF248701E21AF30A040B29
:10277000150B02C079018A018EE1C82ED12CDC82B2
:10278000CB82ED82FE820F831887C801B7010E94B9
:10279000B31401971816190684F4082E04C0EE0C21
:1027A000FF1C001F111F0A94D2F7ED82FE820F83D7
:1027B0001887C81AD90ADC82CB82BA82CE01019668
:1027C0000E9402152896E9E00C943517ACE0B0E0C1
:1027D000ECEEF3E10C94201769837A838B839C835E
:1027E000CE010196BE016B5F7F4F0E94D7158D8190
:1027F000823061F1823050F1843021F48E8188235F
:1028000051F12EC02F81388537FD20C06E812F31C8
:1028100031051CF06623F9F023C08EE190E0821BA5
:10282000930B29853A854B855C8504C05695479561
:10283000379527958A95D2F76623B1F05095409544
:10284000309521953F4F4F4F5F4F0EC020E030E055
:1028500040E050E009C02FEF3FEF4FEF5FE704C0CB
:1028600020E030E040E050E8B901CA012C96E2E0F7
:102870000C943C17A8E0B0E0E0E4F4E10C941817E5
:102880007B018C01611571058105910519F482E0C8
:10289000898360C083E089838EE1C82ED12CDC82DD
:1028A000CB82ED82FE820F831887C801B7010E9498
:1028B000B314FC013197F7FF3BC0222733272E1BAF
:1028C0003F0B57016801022E04C0D694C794B794F9
:1028D000A7940A94D2F740E050E060E070E081E015
:1028E00090E0A0E0B0E004C0880F991FAA1FBB1FB2
:1028F0002A95D2F70197A109B1098E219F21A02322
:10290000B1230097A105B10521F041E050E060E05E
:1029100070E04A295B296C297D294D835E836F8392
:1029200078878EE190E08E1B9F0B9C838B8312C077
:10293000309781F00E2E04C0EE0CFF1C001F111FFB
:102940000A94D2F7ED82FE820F831887CE1ADF0A2F
:10295000DC82CB821A82CE0101960E940215289653
:10296000EAE00C943417EF92FF920F931F937B01D0
:102970008C0180E0E81680E0F80681E0080780E03E
:10298000180788F48FEFE816F1040105110531F0FE
:1029900028F088E090E0A0E0B0E017C080E090E090
:1029A000A0E0B0E012C080E0E81680E0F80680E029
:1029B000080781E0180728F088E190E0A0E0B0E087
:1029C00004C080E190E0A0E0B0E020E230E040E030
:1029D00050E0281B390B4A0B5B0B04C0169507957A
:1029E000F794E7948A95D2F7F701EA5DFE4F80816C
:1029F000281B310941095109C9011F910F91FF900D
:102A0000EF900895DF92EF92FF920F931F93FC01D6
:102A1000E480F58006811781D1808081823048F47E
:102A200080E090E0A0E1B0E0E82AF92A0A2B1B2B15
:102A3000A5C0843009F49FC0823021F4EE24FF2425
:102A4000870105C0E114F1040105110519F4E0E066
:102A5000F0E096C0628173819FEF623879070CF0D5
:102A60005BC022E83FEF261B370B2A3131052CF0E3
:102A700020E030E040E050E02AC0B801A701022E7B
:102A800004C076956795579547950A94D2F781E0EB
:102A900090E0A0E0B0E004C0880F991FAA1FBB1F00
:102AA0002A95D2F70197A109B1098E219F21A02370
:102AB000B1230097A105B10521F081E090E0A0E0ED
:102AC000B0E09A01AB01282B392B4A2B5B2BDA01A2
:102AD000C9018F779070A070B07080349105A10506
:102AE000B10539F427FF09C0205C3F4F4F4F5F4FBE
:102AF00004C0215C3F4F4F4F5F4FE0E0F0E02030DB
:102B0000A0E03A07A0E04A07A0E45A0710F0E1E08D
:102B1000F0E079018A0127C06038710564F5FB0196
:102B2000E158FF4FD801C7018F779070A070B07047
:102B300080349105A105B10539F4E7FE0DC080E4AC
:102B400090E0A0E0B0E004C08FE390E0A0E0B0E04F
:102B5000E80EF91E0A1F1B1F17FF05C016950795E3
:102B6000F794E794319687E016950795F794E794E4
:102B70008A95D1F705C0EE24FF248701EFEFF0E03E
:102B80006E2F679566276795902F9F77D794DD24E2
:102B9000D7948E2F8695492F462B582F5D29B70144
:102BA000CA011F910F91FF90EF90DF900895FC01F3
:102BB000DB01408151812281622F6F7770E0221FFB
:102BC0002227221F9381892F880F822B282F30E004
:102BD000991F9927991F11969C93119721153105DB
:102BE000A9F5411551056105710511F482E037C061
:102BF00082E89FEF13969C938E9312979A01AB01F4
:102C000067E0220F331F441F551F6A95D1F783E0F9
:102C10008C930DC0220F331F441F551F12968D91A8
:102C20009C911397019713969C938E931297203043
:102C300080E0380780E0480780E4580758F314968E
:102C40002D933D934D935C93179708952F3F310536
:102C500079F4411551056105710519F484E08C93EF
:102C6000089564FF03C081E08C9312C01C9210C0D1
:102C70002F57304013963C932E93129783E08C93FA
:102C800087E0440F551F661F771F8A95D1F7706440
:102C900014964D935D936D937C93179708951F93AE
:102CA000DC01FB019C91923008F447C080818230A6
:102CB00008F443C0943051F411961C91843099F576
:102CC0008181682F70E0611B71093FC0843021F061
:102CD000923031F48230B9F18181882389F12DC09D
:102CE00011961C9111978230F1F081811817D9F457
:102CF00012962D913C9113978281938182179307AD
:102D000094F028173907BCF014968D919D910D9081
:102D1000BC91A02D24813581468157812817390720
:102D20004A075B0718F4112341F00AC08217930782
:102D3000A407B50740F4112319F061E070E005C065
:102D40006FEF7FEF02C060E070E0CB011F9108954C
:102D500097FB092E07260AD077FD04D02BD006D08A
:102D600000201AF4709561957F4F0895F6F79095BD
:102D700081959F4F0895629FD001739FF001829FBC
:102D8000E00DF11D649FE00DF11D929FF00D839FFA
:102D9000F00D749FF00D659FF00D9927729FB00D97
:102DA000E11DF91F639FB00DE11DF91FBD01CF01AA
:102DB00011240895AA1BBB1B51E107C0AA1FBB1F0A
:102DC000A617B70710F0A61BB70B881F991F5A95B7
:102DD000A9F780959095BC01CD010895A1E21A2E26
:102DE000AA1BBB1BFD010DC0AA1FBB1FEE1FFF1FAF
:102DF000A217B307E407F50720F0A21BB30BE40BFF
:102E0000F50B661F771F881F991F1A9469F7609545
:102E10007095809590959B01AC01BD01CF010895FF
:102E20002F923F924F925F926F927F928F929F92DA
:102E3000AF92BF92CF92DF92EF92FF920F931F93C8
:102E4000CF93DF93CDB7DEB7CA1BDB0B0FB6F89479
:102E5000DEBF0FBECDBF09942A88398848885F84B9
:102E60006E847D848C849B84AA84B984C884DF802A
:102E7000EE80FD800C811B81AA81B981CE0FD11D0E
:102E80000FB6F894DEBF0FBECDBFED010895CF930E
:102E9000DF93BC018230910510F462E070E0A091F4
:102EA0007E02B0917F02ED01E0E0F0E040E050E012
:102EB00021C0888199818617970769F48A819B814F
:102EC000309719F09383828304C090937F0280939C
:102ED0007E02FE0134C06817790738F441155105A8
:102EE00019F08417950708F4AC01FE018A819B81D3
:102EF0009C01E9012097E9F641155105A9F1CA01A4
:102F0000861B970B049708F4BA01E0E0F0E02AC0B2
:102F10008D919C91119784179507F9F464177507A3
:102F200081F412968D919C911397309719F09383A9
:102F3000828304C090937F0280937E02FD013296CB
:102F40004FC0CA01861B970BFD01E80FF91F619363
:102F5000719302978D939C9343C0FD01828193816D
:102F60009C01D9011097A1F680917C0290917D027D
:102F7000892B41F4809128029091290290937D023F
:102F800080937C0240912A0250912B0241155105F9
:102F900041F44DB75EB78091260290912702481BFD
:102FA000590B20917C0230917D0224173507B0F433
:102FB000CA01821B930B8617970780F0AB014E5F07
:102FC0005F4F8417950750F0420F531F50937D02B7
:102FD00040937C02F9016193719302C0E0E0F0E05C
:102FE000CF01DF91CF910895CF93DF93009709F43C
:102FF00050C0EC0122971B821A82A0917E02B091F0
:103000007F02109709F140E050E0AC17BD0708F1CE
:10301000BB83AA83FE0121913191E20FF31FAE170A
:10302000BF0779F48D919C911197280F391F2E5F5E
:103030003F4F3983288312968D919C9113979B83E0
:103040008A834115510571F4D0937F02C0937E02AB
:1030500020C012968D919C911397AD01009711F0AD
:10306000DC01D3CFFA01D383C28321913191E20FE6
:10307000F31FCE17DF0769F488819981280F391F64
:103080002E5F3F4FFA01318320838A819B81938396
:0C3090008283DF91CF910895F894FFCF68
:10309C00230000000001083132333435363738272D
:1030AC00000000000108000000000000000000000B
:1030BC0000000000000000010202030303030404EB
:1030CC0004040404040405050505050505050505AA
:1030DC00050505050505060606060606060606068A
:1030EC000606060606060606060606060606060674
:1030FC00060606060606070707070707070707075A
:10310C000707070707070707070707070707070743
:10311C000707070707070707070707070707070733
:10312C000707070707070707070707070707070723
:10313C000707070707070808080808080808080809
:10314C0008080808080808080808080808080808F3
:10315C0008080808080808080808080808080808E3
:10316C0008080808080808080808080808080808D3
:10317C0008080808080808080808080808080808C3
:10318C0008080808080808080808080808080808B3
:10319C0008080808080808080808080808080808A3
:1031AC000808080808080808080808080808080893
:0C31BC0008080808080820008002000035
:00000001FF
